{
  "address": "0x3bB15E57AAD0ba82c471e3D42ae51bf5F24b6d55",
  "abi": [
    {
      "inputs": [
        {
          "internalType": "contract IERC1155",
          "name": "pickaxeContractAddress",
          "type": "address"
        },
        {
          "internalType": "contract IERC20",
          "name": "gemsContractAddress",
          "type": "address"
        }
      ],
      "stateMutability": "nonpayable",
      "type": "constructor"
    },
    {
      "inputs": [
        {
          "internalType": "address",
          "name": "_player",
          "type": "address"
        }
      ],
      "name": "calculateRewards",
      "outputs": [
        {
          "internalType": "uint256",
          "name": "_rewards",
          "type": "uint256"
        }
      ],
      "stateMutability": "view",
      "type": "function"
    },
    {
      "inputs": [],
      "name": "claim",
      "outputs": [],
      "stateMutability": "nonpayable",
      "type": "function"
    },
    {
      "inputs": [
        {
          "internalType": "address",
          "name": "",
          "type": "address"
        },
        {
          "internalType": "address",
          "name": "",
          "type": "address"
        },
        {
          "internalType": "uint256[]",
          "name": "",
          "type": "uint256[]"
        },
        {
          "internalType": "uint256[]",
          "name": "",
          "type": "uint256[]"
        },
        {
          "internalType": "bytes",
          "name": "",
          "type": "bytes"
        }
      ],
      "name": "onERC1155BatchReceived",
      "outputs": [
        {
          "internalType": "bytes4",
          "name": "",
          "type": "bytes4"
        }
      ],
      "stateMutability": "nonpayable",
      "type": "function"
    },
    {
      "inputs": [
        {
          "internalType": "address",
          "name": "",
          "type": "address"
        },
        {
          "internalType": "address",
          "name": "",
          "type": "address"
        },
        {
          "internalType": "uint256",
          "name": "",
          "type": "uint256"
        },
        {
          "internalType": "uint256",
          "name": "",
          "type": "uint256"
        },
        {
          "internalType": "bytes",
          "name": "",
          "type": "bytes"
        }
      ],
      "name": "onERC1155Received",
      "outputs": [
        {
          "internalType": "bytes4",
          "name": "",
          "type": "bytes4"
        }
      ],
      "stateMutability": "nonpayable",
      "type": "function"
    },
    {
      "inputs": [],
      "name": "pickaxeNftCollection",
      "outputs": [
        {
          "internalType": "contract IERC1155",
          "name": "",
          "type": "address"
        }
      ],
      "stateMutability": "view",
      "type": "function"
    },
    {
      "inputs": [
        {
          "internalType": "address",
          "name": "",
          "type": "address"
        }
      ],
      "name": "playerLastUpdate",
      "outputs": [
        {
          "internalType": "bool",
          "name": "isData",
          "type": "bool"
        },
        {
          "internalType": "uint256",
          "name": "value",
          "type": "uint256"
        }
      ],
      "stateMutability": "view",
      "type": "function"
    },
    {
      "inputs": [
        {
          "internalType": "address",
          "name": "",
          "type": "address"
        }
      ],
      "name": "playerPickaxe",
      "outputs": [
        {
          "internalType": "bool",
          "name": "isData",
          "type": "bool"
        },
        {
          "internalType": "uint256",
          "name": "value",
          "type": "uint256"
        }
      ],
      "stateMutability": "view",
      "type": "function"
    },
    {
      "inputs": [],
      "name": "rewardsToken",
      "outputs": [
        {
          "internalType": "contract IERC20",
          "name": "",
          "type": "address"
        }
      ],
      "stateMutability": "view",
      "type": "function"
    },
    {
      "inputs": [
        {
          "internalType": "uint256",
          "name": "_tokenId",
          "type": "uint256"
        }
      ],
      "name": "stake",
      "outputs": [],
      "stateMutability": "nonpayable",
      "type": "function"
    },
    {
      "inputs": [
        {
          "internalType": "bytes4",
          "name": "interfaceId",
          "type": "bytes4"
        }
      ],
      "name": "supportsInterface",
      "outputs": [
        {
          "internalType": "bool",
          "name": "",
          "type": "bool"
        }
      ],
      "stateMutability": "view",
      "type": "function"
    },
    {
      "inputs": [],
      "name": "withdraw",
      "outputs": [],
      "stateMutability": "nonpayable",
      "type": "function"
    }
  ],
  "transactionHash": "0xdde9d5cf91142bc02f43924880d7ca3bd1a643073ec49ccd2badca742e8c8b69",
  "args": [
    "0x7a9d9fd2d7777a23fd37c7e4D9cb9fB1158601Fd",
    "0x0984437ff738460fA65b72794ac4b8cC00395982"
  ],
  "numDeployments": 1,
  "solcInputHash": "456a9ffd32e464e5b3340b80b13ce19c",
  "bytecode": "0x60c06040523480156200001157600080fd5b5060405162001d1238038062001d12833981810160405281019062000037919062000172565b60016000819055508173ffffffffffffffffffffffffffffffffffffffff1660808173ffffffffffffffffffffffffffffffffffffffff16815250508073ffffffffffffffffffffffffffffffffffffffff1660a08173ffffffffffffffffffffffffffffffffffffffff16815250505050620001b9565b600080fd5b600073ffffffffffffffffffffffffffffffffffffffff82169050919050565b6000620000e182620000b4565b9050919050565b6000620000f582620000d4565b9050919050565b6200010781620000e8565b81146200011357600080fd5b50565b6000815190506200012781620000fc565b92915050565b60006200013a82620000d4565b9050919050565b6200014c816200012d565b81146200015857600080fd5b50565b6000815190506200016c8162000141565b92915050565b600080604083850312156200018c576200018b620000af565b5b60006200019c8582860162000116565b9250506020620001af858286016200015b565b9150509250929050565b60805160a051611b02620002106000396000818161038d0152818161061d01528181610bef0152610ea801526000818161042c015281816109dc01528181610b0d01528181610c8e0152610e6f0152611b026000f3fe608060405234801561001057600080fd5b50600436106100a95760003560e01c80638194aa77116100715780638194aa7714610153578063a694fc3a14610184578063a9b00e25146101a0578063bc197c81146101be578063d1af0c7d146101ee578063f23a6e611461020c576100a9565b806301ffc9a7146100ae57806306acb8c7146100de5780633ccfd60b1461010f5780634e71d92d1461011957806364ab867514610123575b600080fd5b6100c860048036038101906100c3919061100f565b61023c565b6040516100d59190611057565b60405180910390f35b6100f860048036038101906100f391906110d0565b6102b6565b604051610106929190611116565b60405180910390f35b6101176102e7565b005b610121610606565b005b61013d600480360381019061013891906110d0565b610767565b60405161014a919061113f565b60405180910390f35b61016d600480360381019061016891906110d0565b61099f565b60405161017b929190611116565b60405180910390f35b61019e60048036038101906101999190611186565b6109d0565b005b6101a8610e6d565b6040516101b59190611212565b60405180910390f35b6101d860048036038101906101d3919061143b565b610e91565b6040516101e59190611519565b60405180910390f35b6101f6610ea6565b6040516102039190611555565b60405180910390f35b61022660048036038101906102219190611570565b610eca565b6040516102339190611519565b60405180910390f35b60007f4e2312e0000000000000000000000000000000000000000000000000000000007bffffffffffffffffffffffffffffffffffffffffffffffffffffffff1916827bffffffffffffffffffffffffffffffffffffffffffffffffffffffff191614806102af57506102ae82610edf565b5b9050919050565b60016020528060005260406000206000915090508060000160009054906101000a900460ff16908060010154905082565b6102ef610f49565b600160003373ffffffffffffffffffffffffffffffffffffffff1673ffffffffffffffffffffffffffffffffffffffff16815260200190815260200160002060000160009054906101000a900460ff1661037e576040517f08c379a00000000000000000000000000000000000000000000000000000000081526004016103759061168a565b60405180910390fd5b600061038933610767565b90507f000000000000000000000000000000000000000000000000000000000000000073ffffffffffffffffffffffffffffffffffffffff1663a9059cbb33836040518363ffffffff1660e01b81526004016103e69291906116b9565b6020604051808303816000875af1158015610405573d6000803e3d6000fd5b505050506040513d601f19601f82011682018060405250810190610429919061170e565b507f000000000000000000000000000000000000000000000000000000000000000073ffffffffffffffffffffffffffffffffffffffff1663f242432a3033600160003373ffffffffffffffffffffffffffffffffffffffff1673ffffffffffffffffffffffffffffffffffffffff1681526020019081526020016000206001015460016040518563ffffffff1660e01b81526004016104cc94939291906117d3565b600060405180830381600087803b1580156104e657600080fd5b505af11580156104fa573d6000803e3d6000fd5b505050506000600160003373ffffffffffffffffffffffffffffffffffffffff1673ffffffffffffffffffffffffffffffffffffffff16815260200190815260200160002060000160006101000a81548160ff0219169083151502179055506001600260003373ffffffffffffffffffffffffffffffffffffffff1673ffffffffffffffffffffffffffffffffffffffff16815260200190815260200160002060000160006101000a81548160ff02191690831515021790555042600260003373ffffffffffffffffffffffffffffffffffffffff1673ffffffffffffffffffffffffffffffffffffffff1681526020019081526020016000206001018190555050610604610f99565b565b61060e610f49565b600061061933610767565b90507f000000000000000000000000000000000000000000000000000000000000000073ffffffffffffffffffffffffffffffffffffffff1663a9059cbb33836040518363ffffffff1660e01b81526004016106769291906116b9565b6020604051808303816000875af1158015610695573d6000803e3d6000fd5b505050506040513d601f19601f820116820180604052508101906106b9919061170e565b506001600260003373ffffffffffffffffffffffffffffffffffffffff1673ffffffffffffffffffffffffffffffffffffffff16815260200190815260200160002060000160006101000a81548160ff02191690831515021790555042600260003373ffffffffffffffffffffffffffffffffffffffff1673ffffffffffffffffffffffffffffffffffffffff1681526020019081526020016000206001018190555050610765610f99565b565b6000600260008373ffffffffffffffffffffffffffffffffffffffff1673ffffffffffffffffffffffffffffffffffffffff16815260200190815260200160002060000160009054906101000a900460ff1615806108125750600160008373ffffffffffffffffffffffffffffffffffffffff1673ffffffffffffffffffffffffffffffffffffffff16815260200190815260200160002060000160009054906101000a900460ff16155b15610820576000905061099a565b6000600260008473ffffffffffffffffffffffffffffffffffffffff1673ffffffffffffffffffffffffffffffffffffffff1681526020019081526020016000206001015442610870919061185a565b90506000600190506002600160008673ffffffffffffffffffffffffffffffffffffffff1673ffffffffffffffffffffffffffffffffffffffff1681526020019081526020016000206001015410156108cc57600a9050610972565b6004600160008673ffffffffffffffffffffffffffffffffffffffff1673ffffffffffffffffffffffffffffffffffffffff1681526020019081526020016000206001015410156109205760059050610971565b6006600160008673ffffffffffffffffffffffffffffffffffffffff1673ffffffffffffffffffffffffffffffffffffffff16815260200190815260200160002060010154101561097057600390505b5b5b6000816509184e72a00084610987919061188e565b610991919061188e565b90508093505050505b919050565b60026020528060005260406000206000915090508060000160009054906101000a900460ff16908060010154905082565b6109d8610f49565b60017f000000000000000000000000000000000000000000000000000000000000000073ffffffffffffffffffffffffffffffffffffffff1662fdd58e33846040518363ffffffff1660e01b8152600401610a349291906116b9565b602060405180830381865afa158015610a51573d6000803e3d6000fd5b505050506040513d601f19601f82011682018060405250810190610a7591906118fd565b1015610ab6576040517f08c379a0000000000000000000000000000000000000000000000000000000008152600401610aad9061199c565b60405180910390fd5b600160003373ffffffffffffffffffffffffffffffffffffffff1673ffffffffffffffffffffffffffffffffffffffff16815260200190815260200160002060000160009054906101000a900460ff1615610be0577f000000000000000000000000000000000000000000000000000000000000000073ffffffffffffffffffffffffffffffffffffffff1663f242432a3033600160003373ffffffffffffffffffffffffffffffffffffffff1673ffffffffffffffffffffffffffffffffffffffff1681526020019081526020016000206001015460016040518563ffffffff1660e01b8152600401610bad94939291906117d3565b600060405180830381600087803b158015610bc757600080fd5b505af1158015610bdb573d6000803e3d6000fd5b505050505b6000610beb33610767565b90507f000000000000000000000000000000000000000000000000000000000000000073ffffffffffffffffffffffffffffffffffffffff1663a9059cbb33836040518363ffffffff1660e01b8152600401610c489291906116b9565b6020604051808303816000875af1158015610c67573d6000803e3d6000fd5b505050506040513d601f19601f82011682018060405250810190610c8b919061170e565b507f000000000000000000000000000000000000000000000000000000000000000073ffffffffffffffffffffffffffffffffffffffff1663f242432a33308560016040518563ffffffff1660e01b8152600401610cec9493929190611a08565b600060405180830381600087803b158015610d0657600080fd5b505af1158015610d1a573d6000803e3d6000fd5b5050505081600160003373ffffffffffffffffffffffffffffffffffffffff1673ffffffffffffffffffffffffffffffffffffffff1681526020019081526020016000206001018190555060018060003373ffffffffffffffffffffffffffffffffffffffff1673ffffffffffffffffffffffffffffffffffffffff16815260200190815260200160002060000160006101000a81548160ff0219169083151502179055506001600260003373ffffffffffffffffffffffffffffffffffffffff1673ffffffffffffffffffffffffffffffffffffffff16815260200190815260200160002060000160006101000a81548160ff02191690831515021790555042600260003373ffffffffffffffffffffffffffffffffffffffff1673ffffffffffffffffffffffffffffffffffffffff1681526020019081526020016000206001018190555050610e6a610f99565b50565b7f000000000000000000000000000000000000000000000000000000000000000081565b600063bc197c8160e01b905095945050505050565b7f000000000000000000000000000000000000000000000000000000000000000081565b600063f23a6e6160e01b905095945050505050565b60007f01ffc9a7000000000000000000000000000000000000000000000000000000007bffffffffffffffffffffffffffffffffffffffffffffffffffffffff1916827bffffffffffffffffffffffffffffffffffffffffffffffffffffffff1916149050919050565b60026000541415610f8f576040517f08c379a0000000000000000000000000000000000000000000000000000000008152600401610f8690611aac565b60405180910390fd5b6002600081905550565b6001600081905550565b6000604051905090565b600080fd5b600080fd5b60007fffffffff0000000000000000000000000000000000000000000000000000000082169050919050565b610fec81610fb7565b8114610ff757600080fd5b50565b60008135905061100981610fe3565b92915050565b60006020828403121561102557611024610fad565b5b600061103384828501610ffa565b91505092915050565b60008115159050919050565b6110518161103c565b82525050565b600060208201905061106c6000830184611048565b92915050565b600073ffffffffffffffffffffffffffffffffffffffff82169050919050565b600061109d82611072565b9050919050565b6110ad81611092565b81146110b857600080fd5b50565b6000813590506110ca816110a4565b92915050565b6000602082840312156110e6576110e5610fad565b5b60006110f4848285016110bb565b91505092915050565b6000819050919050565b611110816110fd565b82525050565b600060408201905061112b6000830185611048565b6111386020830184611107565b9392505050565b60006020820190506111546000830184611107565b92915050565b611163816110fd565b811461116e57600080fd5b50565b6000813590506111808161115a565b92915050565b60006020828403121561119c5761119b610fad565b5b60006111aa84828501611171565b91505092915050565b6000819050919050565b60006111d86111d36111ce84611072565b6111b3565b611072565b9050919050565b60006111ea826111bd565b9050919050565b60006111fc826111df565b9050919050565b61120c816111f1565b82525050565b60006020820190506112276000830184611203565b92915050565b600080fd5b6000601f19601f8301169050919050565b7f4e487b7100000000000000000000000000000000000000000000000000000000600052604160045260246000fd5b61127b82611232565b810181811067ffffffffffffffff8211171561129a57611299611243565b5b80604052505050565b60006112ad610fa3565b90506112b98282611272565b919050565b600067ffffffffffffffff8211156112d9576112d8611243565b5b602082029050602081019050919050565b600080fd5b60006113026112fd846112be565b6112a3565b90508083825260208201905060208402830185811115611325576113246112ea565b5b835b8181101561134e578061133a8882611171565b845260208401935050602081019050611327565b5050509392505050565b600082601f83011261136d5761136c61122d565b5b813561137d8482602086016112ef565b91505092915050565b600080fd5b600067ffffffffffffffff8211156113a6576113a5611243565b5b6113af82611232565b9050602081019050919050565b82818337600083830152505050565b60006113de6113d98461138b565b6112a3565b9050828152602081018484840111156113fa576113f9611386565b5b6114058482856113bc565b509392505050565b600082601f8301126114225761142161122d565b5b81356114328482602086016113cb565b91505092915050565b600080600080600060a0868803121561145757611456610fad565b5b6000611465888289016110bb565b9550506020611476888289016110bb565b945050604086013567ffffffffffffffff81111561149757611496610fb2565b5b6114a388828901611358565b935050606086013567ffffffffffffffff8111156114c4576114c3610fb2565b5b6114d088828901611358565b925050608086013567ffffffffffffffff8111156114f1576114f0610fb2565b5b6114fd8882890161140d565b9150509295509295909350565b61151381610fb7565b82525050565b600060208201905061152e600083018461150a565b92915050565b600061153f826111df565b9050919050565b61154f81611534565b82525050565b600060208201905061156a6000830184611546565b92915050565b600080600080600060a0868803121561158c5761158b610fad565b5b600061159a888289016110bb565b95505060206115ab888289016110bb565b94505060406115bc88828901611171565b93505060606115cd88828901611171565b925050608086013567ffffffffffffffff8111156115ee576115ed610fb2565b5b6115fa8882890161140d565b9150509295509295909350565b600082825260208201905092915050565b7f596f7520646f206e6f74206861766520612077617272696f7220746f2077697460008201527f68647261772e0000000000000000000000000000000000000000000000000000602082015250565b6000611674602683611607565b915061167f82611618565b604082019050919050565b600060208201905081810360008301526116a381611667565b9050919050565b6116b381611092565b82525050565b60006040820190506116ce60008301856116aa565b6116db6020830184611107565b9392505050565b6116eb8161103c565b81146116f657600080fd5b50565b600081519050611708816116e2565b92915050565b60006020828403121561172457611723610fad565b5b6000611732848285016116f9565b91505092915050565b6000819050919050565b600061176061175b6117568461173b565b6111b3565b6110fd565b9050919050565b61177081611745565b82525050565b600082825260208201905092915050565b7f52657475726e696e6720796f7572206f6c642077617272696f72000000000000600082015250565b60006117bd601a83611776565b91506117c882611787565b602082019050919050565b600060a0820190506117e860008301876116aa565b6117f560208301866116aa565b6118026040830185611107565b61180f6060830184611767565b8181036080830152611820816117b0565b905095945050505050565b7f4e487b7100000000000000000000000000000000000000000000000000000000600052601160045260246000fd5b6000611865826110fd565b9150611870836110fd565b9250828210156118835761188261182b565b5b828203905092915050565b6000611899826110fd565b91506118a4836110fd565b9250817fffffffffffffffffffffffffffffffffffffffffffffffffffffffffffffffff04831182151516156118dd576118dc61182b565b5b828202905092915050565b6000815190506118f78161115a565b92915050565b60006020828403121561191357611912610fad565b5b6000611921848285016118e8565b91505092915050565b7f596f75206d7573742068617665206174206c656173742031206f66207468652060008201527f77617272696f7220796f752061726520747279696e6720746f207374616b6500602082015250565b6000611986603f83611607565b91506119918261192a565b604082019050919050565b600060208201905081810360008301526119b581611979565b9050919050565b7f5374616b696e6720796f75722077617272696f72000000000000000000000000600082015250565b60006119f2601483611776565b91506119fd826119bc565b602082019050919050565b600060a082019050611a1d60008301876116aa565b611a2a60208301866116aa565b611a376040830185611107565b611a446060830184611767565b8181036080830152611a55816119e5565b905095945050505050565b7f5265656e7472616e637947756172643a207265656e7472616e742063616c6c00600082015250565b6000611a96601f83611607565b9150611aa182611a60565b602082019050919050565b60006020820190508181036000830152611ac581611a89565b905091905056fea264697066735822122049ac7b53b8f855e30de991e1d06a337d50e9afb746d0470f2711648228be5f6064736f6c634300080b0033",
  "devdoc": {
    "kind": "dev",
    "methods": {
      "supportsInterface(bytes4)": {
        "details": "See {IERC165-supportsInterface}."
      }
    },
    "version": 1
  },
  "userdoc": {
    "kind": "user",
    "methods": {},
    "version": 1
  },
  "storageLayout": {
    "storage": [
      {
        "astId": 10,
        "contract": "contracts/Mining.sol:Mining",
        "label": "_status",
        "offset": 0,
        "slot": "0",
        "type": "t_uint256"
      },
      {
        "astId": 459,
        "contract": "contracts/Mining.sol:Mining",
        "label": "playerPickaxe",
        "offset": 0,
        "slot": "1",
        "type": "t_mapping(t_address,t_struct(MapValue)454_storage)"
      },
      {
        "astId": 464,
        "contract": "contracts/Mining.sol:Mining",
        "label": "playerLastUpdate",
        "offset": 0,
        "slot": "2",
        "type": "t_mapping(t_address,t_struct(MapValue)454_storage)"
      }
    ],
    "types": {
      "t_address": {
        "encoding": "inplace",
        "label": "address",
        "numberOfBytes": "20"
      },
      "t_bool": {
        "encoding": "inplace",
        "label": "bool",
        "numberOfBytes": "1"
      },
      "t_mapping(t_address,t_struct(MapValue)454_storage)": {
        "encoding": "mapping",
        "key": "t_address",
        "label": "mapping(address => struct Mining.MapValue)",
        "numberOfBytes": "32",
        "value": "t_struct(MapValue)454_storage"
      },
      "t_struct(MapValue)454_storage": {
        "encoding": "inplace",
        "label": "struct Mining.MapValue",
        "members": [
          {
            "astId": 451,
            "contract": "contracts/Mining.sol:Mining",
            "label": "isData",
            "offset": 0,
            "slot": "0",
            "type": "t_bool"
          },
          {
            "astId": 453,
            "contract": "contracts/Mining.sol:Mining",
            "label": "value",
            "offset": 0,
            "slot": "1",
            "type": "t_uint256"
          }
        ],
        "numberOfBytes": "64"
      },
      "t_uint256": {
        "encoding": "inplace",
        "label": "uint256",
        "numberOfBytes": "32"
      }
    }
  }
}